{
  "address": "0xb98AC9a690610891F0557e07E07EB3140ce78C8d",
  "abi": [
    {
      "anonymous": false,
      "inputs": [
        {
          "indexed": false,
          "internalType": "uint256",
          "name": "gameId",
          "type": "uint256"
        }
      ],
      "name": "GameCreated",
      "type": "event"
    },
    {
      "anonymous": false,
      "inputs": [
        {
          "indexed": false,
          "internalType": "uint256",
          "name": "gameId",
          "type": "uint256"
        }
      ],
      "name": "GameFinished",
      "type": "event"
    },
    {
      "anonymous": false,
      "inputs": [
        {
          "indexed": false,
          "internalType": "uint256",
          "name": "gameId",
          "type": "uint256"
        },
        {
          "indexed": false,
          "internalType": "address",
          "name": "player",
          "type": "address"
        }
      ],
      "name": "GameJoined",
      "type": "event"
    },
    {
      "inputs": [],
      "name": "createGame",
      "outputs": [],
      "stateMutability": "nonpayable",
      "type": "function"
    },
    {
      "inputs": [
        {
          "internalType": "uint256",
          "name": "gameId",
          "type": "uint256"
        }
      ],
      "name": "finishGame",
      "outputs": [],
      "stateMutability": "nonpayable",
      "type": "function"
    },
    {
      "inputs": [],
      "name": "gamesPlayed",
      "outputs": [
        {
          "internalType": "uint256",
          "name": "_value",
          "type": "uint256"
        }
      ],
      "stateMutability": "view",
      "type": "function"
    },
    {
      "inputs": [
        {
          "internalType": "uint256",
          "name": "gameId",
          "type": "uint256"
        }
      ],
      "name": "getGame",
      "outputs": [
        {
          "components": [
            {
              "internalType": "uint256",
              "name": "timestamp",
              "type": "uint256"
            },
            {
              "internalType": "address[2]",
              "name": "players",
              "type": "address[2]"
            },
            {
              "internalType": "uint24",
              "name": "state",
              "type": "uint24"
            },
            {
              "internalType": "bool",
              "name": "isOpen",
              "type": "bool"
            },
            {
              "internalType": "bool",
              "name": "isPlaying",
              "type": "bool"
            },
            {
              "internalType": "bool",
              "name": "isDone",
              "type": "bool"
            }
          ],
          "internalType": "struct Multiplayer.Game",
          "name": "",
          "type": "tuple"
        }
      ],
      "stateMutability": "view",
      "type": "function"
    },
    {
      "inputs": [],
      "name": "getGames",
      "outputs": [
        {
          "components": [
            {
              "internalType": "uint256",
              "name": "timestamp",
              "type": "uint256"
            },
            {
              "internalType": "address[2]",
              "name": "players",
              "type": "address[2]"
            },
            {
              "internalType": "uint24",
              "name": "state",
              "type": "uint24"
            },
            {
              "internalType": "bool",
              "name": "isOpen",
              "type": "bool"
            },
            {
              "internalType": "bool",
              "name": "isPlaying",
              "type": "bool"
            },
            {
              "internalType": "bool",
              "name": "isDone",
              "type": "bool"
            }
          ],
          "internalType": "struct Multiplayer.Game[]",
          "name": "",
          "type": "tuple[]"
        }
      ],
      "stateMutability": "view",
      "type": "function"
    },
    {
      "inputs": [
        {
          "internalType": "uint256",
          "name": "gameId",
          "type": "uint256"
        }
      ],
      "name": "joinGame",
      "outputs": [],
      "stateMutability": "nonpayable",
      "type": "function"
    },
    {
      "inputs": [],
      "name": "listGames",
      "outputs": [
        {
          "internalType": "uint256[]",
          "name": "",
          "type": "uint256[]"
        }
      ],
      "stateMutability": "view",
      "type": "function"
    }
  ],
  "transactionHash": "0xb4897909061b511cf939a3eb50bfecf839c30e43fd9a54d52e295b26724a835a",
  "args": [],
  "solcInputHash": "7abe8462ca806dfc33f3c01f5b599aab",
  "bytecode": "0x608060405234801561001057600080fd5b506109ed806100206000396000f3fe608060405234801561001057600080fd5b506004361061007d5760003560e01c8063a2f77bcc1161005b578063a2f77bcc146100be578063c04c5947146100de578063cfe186b2146100f3578063efaa55a01461010657600080fd5b80636c39b7ee146100825780637255d7291461009f57806399abff8c146100a9575b600080fd5b60005461008c9081565b6040519081526020015b60405180910390f35b6100a7610119565b005b6100b1610217565b60405161009691906107a2565b6100d16100cc3660046107e6565b61025d565b6040516100969190610875565b6100e6610276565b6040516100969190610883565b6100a76101013660046107e6565b61034e565b6100a76101143660046107e6565b610430565b610127600080546001019055565b6000805460405163158556d760e21b815260016004820152602481018290523360448201819052919250733233CB7C56841dD63d70e2C26e95F94c21507002906356155b5c9060640160006040518083038186803b15801561018857600080fd5b505af415801561019c573d6000803e3d6000fd5b505050506101df6040518060400160405280601c81526020017f43726561746564206e65772067616d652077697468204944202573210000000081525083610521565b6040518281527fbd19c47e9925eb6f7be8bb1c13a841e0240aaeaf17f217e90022e9c8eb66877f906020015b60405180910390a15050565b60606000610225600161056a565b90506102586040518060400160405280600e81526020016d466f756e642025732067616d657360901b8152508251610521565b919050565b610265610748565b6102706001836105c6565b92915050565b60606000610284600161056a565b90506000815167ffffffffffffffff8111156102a2576102a26108c5565b6040519080825280602002602001820160405280156102db57816020015b6102c8610748565b8152602001906001900390816102c05790505b50905060005b8251811015610347576103178382815181106102ff576102ff6108db565b602002602001015160016105c690919063ffffffff16565b828281518110610329576103296108db565b6020026020010181905250808061033f906108f1565b9150506102e1565b5092915050565b6040516227681d60e91b81526001600482015260248101829052336044820181905290733233CB7C56841dD63d70e2C26e95F94c2150700290634ed03a009060640160006040518083038186803b1580156103a857600080fd5b505af41580156103bc573d6000803e3d6000fd5b505050506104006040518060400160405280601b81526020017f506c617965722025732066696e69736865642067616d6520257321000000000081525082846106db565b6040518281527f6543ec12c6e53f26532beb5289ef5732dcd77c2e9e9921ae42b695905f5e84c09060200161020b565b604051630ecc303b60e21b81526001600482015260248101829052336044820181905290733233CB7C56841dD63d70e2C26e95F94c2150700290633b30c0ec9060640160006040518083038186803b15801561048b57600080fd5b505af415801561049f573d6000803e3d6000fd5b505050506104e36040518060400160405280601981526020017f506c61796572202573206a6f696e65642067616d65202573210000000000000081525082846106db565b604080518381526001600160a01b03831660208201527f45c4f9cbafe186141862608c493f28b823fde4c2142bedc3f5169961a73fdd22910161020b565b6105668282604051602401610537929190610967565b60408051601f198184030181529190526020810180516001600160e01b03166309710a9d60e41b179052610727565b5050565b6060816000018054806020026020016040519081016040528092919081815260200182805480156105ba57602002820191906000526020600020905b8154815260200190600101908083116105a6575b50505050509050919050565b6105ce610748565b600082815260038401602052604090205460ff166106285760405162461bcd60e51b815260206004820152601360248201527211d85b5948191bd95cc81b9bdd08195e1a5cdd606a1b604482015260640160405180910390fd5b600082815260018085016020908152604092839020835160c08101855281548152845180860190955293909291840191830160028282826020028201915b81546001600160a01b031681526001909101906020018083116106665750505091835250506003919091015462ffffff8116602083015260ff63010000008204811615156040840152640100000000820481161515606084015265010000000000909104161515608090910152905092915050565b6107228383836040516024016106f393929190610989565b60408051601f198184030181529190526020810180516001600160e01b03166307c8121760e01b179052610727565b505050565b80516a636f6e736f6c652e6c6f67602083016000808483855afa5050505050565b6040518060c0016040528060008152602001610762610784565b8152600060208201819052604082018190526060820181905260809091015290565b60405180604001604052806002906020820280368337509192915050565b6020808252825182820181905260009190848201906040850190845b818110156107da578351835292840192918401916001016107be565b50909695505050505050565b6000602082840312156107f857600080fd5b5035919050565b8051825260208082015181840160005b60028110156108355782516001600160a01b03168252918301919083019060010161080f565b50505050604081015162ffffff81166060840152506060810151801515608084015250608081015180151560a08401525060a00151151560c09190910152565b60e0810161027082846107ff565b6020808252825182820181905260009190848201906040850190845b818110156107da576108b28385516107ff565b9284019260e0929092019160010161089f565b634e487b7160e01b600052604160045260246000fd5b634e487b7160e01b600052603260045260246000fd5b600060001982141561091357634e487b7160e01b600052601160045260246000fd5b5060010190565b6000815180845260005b8181101561094057602081850181015186830182015201610924565b81811115610952576000602083870101525b50601f01601f19169290920160200192915050565b60408152600061097a604083018561091a565b90508260208301529392505050565b60608152600061099c606083018661091a565b6001600160a01b03949094166020830152506040015291905056fea26469706673582212208a75cfa719ae7064c0a45ca0473af97fd1dc6cfbf6c4f6c38f3d2f7c1778899f64736f6c63430008090033",
  "deployedBytecode": "0x608060405234801561001057600080fd5b506004361061007d5760003560e01c8063a2f77bcc1161005b578063a2f77bcc146100be578063c04c5947146100de578063cfe186b2146100f3578063efaa55a01461010657600080fd5b80636c39b7ee146100825780637255d7291461009f57806399abff8c146100a9575b600080fd5b60005461008c9081565b6040519081526020015b60405180910390f35b6100a7610119565b005b6100b1610217565b60405161009691906107a2565b6100d16100cc3660046107e6565b61025d565b6040516100969190610875565b6100e6610276565b6040516100969190610883565b6100a76101013660046107e6565b61034e565b6100a76101143660046107e6565b610430565b610127600080546001019055565b6000805460405163158556d760e21b81526001600482015260248101829052336044820181905291925073__$d5a8f15ebe2b667b626a4c9a570e9cfa07$__906356155b5c9060640160006040518083038186803b15801561018857600080fd5b505af415801561019c573d6000803e3d6000fd5b505050506101df6040518060400160405280601c81526020017f43726561746564206e65772067616d652077697468204944202573210000000081525083610521565b6040518281527fbd19c47e9925eb6f7be8bb1c13a841e0240aaeaf17f217e90022e9c8eb66877f906020015b60405180910390a15050565b60606000610225600161056a565b90506102586040518060400160405280600e81526020016d466f756e642025732067616d657360901b8152508251610521565b919050565b610265610748565b6102706001836105c6565b92915050565b60606000610284600161056a565b90506000815167ffffffffffffffff8111156102a2576102a26108c5565b6040519080825280602002602001820160405280156102db57816020015b6102c8610748565b8152602001906001900390816102c05790505b50905060005b8251811015610347576103178382815181106102ff576102ff6108db565b602002602001015160016105c690919063ffffffff16565b828281518110610329576103296108db565b6020026020010181905250808061033f906108f1565b9150506102e1565b5092915050565b6040516227681d60e91b8152600160048201526024810182905233604482018190529073__$d5a8f15ebe2b667b626a4c9a570e9cfa07$__90634ed03a009060640160006040518083038186803b1580156103a857600080fd5b505af41580156103bc573d6000803e3d6000fd5b505050506104006040518060400160405280601b81526020017f506c617965722025732066696e69736865642067616d6520257321000000000081525082846106db565b6040518281527f6543ec12c6e53f26532beb5289ef5732dcd77c2e9e9921ae42b695905f5e84c09060200161020b565b604051630ecc303b60e21b8152600160048201526024810182905233604482018190529073__$d5a8f15ebe2b667b626a4c9a570e9cfa07$__90633b30c0ec9060640160006040518083038186803b15801561048b57600080fd5b505af415801561049f573d6000803e3d6000fd5b505050506104e36040518060400160405280601981526020017f506c61796572202573206a6f696e65642067616d65202573210000000000000081525082846106db565b604080518381526001600160a01b03831660208201527f45c4f9cbafe186141862608c493f28b823fde4c2142bedc3f5169961a73fdd22910161020b565b6105668282604051602401610537929190610967565b60408051601f198184030181529190526020810180516001600160e01b03166309710a9d60e41b179052610727565b5050565b6060816000018054806020026020016040519081016040528092919081815260200182805480156105ba57602002820191906000526020600020905b8154815260200190600101908083116105a6575b50505050509050919050565b6105ce610748565b600082815260038401602052604090205460ff166106285760405162461bcd60e51b815260206004820152601360248201527211d85b5948191bd95cc81b9bdd08195e1a5cdd606a1b604482015260640160405180910390fd5b600082815260018085016020908152604092839020835160c08101855281548152845180860190955293909291840191830160028282826020028201915b81546001600160a01b031681526001909101906020018083116106665750505091835250506003919091015462ffffff8116602083015260ff63010000008204811615156040840152640100000000820481161515606084015265010000000000909104161515608090910152905092915050565b6107228383836040516024016106f393929190610989565b60408051601f198184030181529190526020810180516001600160e01b03166307c8121760e01b179052610727565b505050565b80516a636f6e736f6c652e6c6f67602083016000808483855afa5050505050565b6040518060c0016040528060008152602001610762610784565b8152600060208201819052604082018190526060820181905260809091015290565b60405180604001604052806002906020820280368337509192915050565b6020808252825182820181905260009190848201906040850190845b818110156107da578351835292840192918401916001016107be565b50909695505050505050565b6000602082840312156107f857600080fd5b5035919050565b8051825260208082015181840160005b60028110156108355782516001600160a01b03168252918301919083019060010161080f565b50505050604081015162ffffff81166060840152506060810151801515608084015250608081015180151560a08401525060a00151151560c09190910152565b60e0810161027082846107ff565b6020808252825182820181905260009190848201906040850190845b818110156107da576108b28385516107ff565b9284019260e0929092019160010161089f565b634e487b7160e01b600052604160045260246000fd5b634e487b7160e01b600052603260045260246000fd5b600060001982141561091357634e487b7160e01b600052601160045260246000fd5b5060010190565b6000815180845260005b8181101561094057602081850181015186830182015201610924565b81811115610952576000602083870101525b50601f01601f19169290920160200192915050565b60408152600061097a604083018561091a565b90508260208301529392505050565b60608152600061099c606083018661091a565b6001600160a01b03949094166020830152506040015291905056fea26469706673582212208a75cfa719ae7064c0a45ca0473af97fd1dc6cfbf6c4f6c38f3d2f7c1778899f64736f6c63430008090033",
  "libraries": {
    "Multiplayer": "0x3233CB7C56841dD63d70e2C26e95F94c21507002"
  },
  "devdoc": {
    "kind": "dev",
    "methods": {},
    "version": 1
  },
  "userdoc": {
    "events": {
      "GameCreated(uint256)": {
        "notice": "Events *"
      }
    },
    "kind": "user",
    "methods": {
      "gamesPlayed()": {
        "notice": "Properties *"
      },
      "listGames()": {
        "notice": "Methods *"
      }
    },
    "version": 1
  },
  "storageLayout": {
    "storage": [
      {
        "astId": 94,
        "contract": "contracts/GameBase.sol:GameBase",
        "label": "gamesPlayed",
        "offset": 0,
        "slot": "0",
        "type": "t_struct(Counter)5_storage"
      },
      {
        "astId": 97,
        "contract": "contracts/GameBase.sol:GameBase",
        "label": "games",
        "offset": 0,
        "slot": "1",
        "type": "t_struct(Games)345_storage"
      }
    ],
    "types": {
      "t_address": {
        "encoding": "inplace",
        "label": "address",
        "numberOfBytes": "20"
      },
      "t_array(t_address)2_storage": {
        "base": "t_address",
        "encoding": "inplace",
        "label": "address[2]",
        "numberOfBytes": "64"
      },
      "t_array(t_uint256)dyn_storage": {
        "base": "t_uint256",
        "encoding": "dynamic_array",
        "label": "uint256[]",
        "numberOfBytes": "32"
      },
      "t_bool": {
        "encoding": "inplace",
        "label": "bool",
        "numberOfBytes": "1"
      },
      "t_mapping(t_uint256,t_bool)": {
        "encoding": "mapping",
        "key": "t_uint256",
        "label": "mapping(uint256 => bool)",
        "numberOfBytes": "32",
        "value": "t_bool"
      },
      "t_mapping(t_uint256,t_struct(Game)328_storage)": {
        "encoding": "mapping",
        "key": "t_uint256",
        "label": "mapping(uint256 => struct Multiplayer.Game)",
        "numberOfBytes": "32",
        "value": "t_struct(Game)328_storage"
      },
      "t_mapping(t_uint256,t_uint256)": {
        "encoding": "mapping",
        "key": "t_uint256",
        "label": "mapping(uint256 => uint256)",
        "numberOfBytes": "32",
        "value": "t_uint256"
      },
      "t_struct(Counter)5_storage": {
        "encoding": "inplace",
        "label": "struct CountersUpgradeable.Counter",
        "members": [
          {
            "astId": 4,
            "contract": "contracts/GameBase.sol:GameBase",
            "label": "_value",
            "offset": 0,
            "slot": "0",
            "type": "t_uint256"
          }
        ],
        "numberOfBytes": "32"
      },
      "t_struct(Game)328_storage": {
        "encoding": "inplace",
        "label": "struct Multiplayer.Game",
        "members": [
          {
            "astId": 315,
            "contract": "contracts/GameBase.sol:GameBase",
            "label": "timestamp",
            "offset": 0,
            "slot": "0",
            "type": "t_uint256"
          },
          {
            "astId": 319,
            "contract": "contracts/GameBase.sol:GameBase",
            "label": "players",
            "offset": 0,
            "slot": "1",
            "type": "t_array(t_address)2_storage"
          },
          {
            "astId": 321,
            "contract": "contracts/GameBase.sol:GameBase",
            "label": "state",
            "offset": 0,
            "slot": "3",
            "type": "t_uint24"
          },
          {
            "astId": 323,
            "contract": "contracts/GameBase.sol:GameBase",
            "label": "isOpen",
            "offset": 3,
            "slot": "3",
            "type": "t_bool"
          },
          {
            "astId": 325,
            "contract": "contracts/GameBase.sol:GameBase",
            "label": "isPlaying",
            "offset": 4,
            "slot": "3",
            "type": "t_bool"
          },
          {
            "astId": 327,
            "contract": "contracts/GameBase.sol:GameBase",
            "label": "isDone",
            "offset": 5,
            "slot": "3",
            "type": "t_bool"
          }
        ],
        "numberOfBytes": "128"
      },
      "t_struct(Games)345_storage": {
        "encoding": "inplace",
        "label": "struct Multiplayer.Games",
        "members": [
          {
            "astId": 331,
            "contract": "contracts/GameBase.sol:GameBase",
            "label": "gameIds",
            "offset": 0,
            "slot": "0",
            "type": "t_array(t_uint256)dyn_storage"
          },
          {
            "astId": 336,
            "contract": "contracts/GameBase.sol:GameBase",
            "label": "data",
            "offset": 0,
            "slot": "1",
            "type": "t_mapping(t_uint256,t_struct(Game)328_storage)"
          },
          {
            "astId": 340,
            "contract": "contracts/GameBase.sol:GameBase",
            "label": "indexOf",
            "offset": 0,
            "slot": "2",
            "type": "t_mapping(t_uint256,t_uint256)"
          },
          {
            "astId": 344,
            "contract": "contracts/GameBase.sol:GameBase",
            "label": "inserted",
            "offset": 0,
            "slot": "3",
            "type": "t_mapping(t_uint256,t_bool)"
          }
        ],
        "numberOfBytes": "128"
      },
      "t_uint24": {
        "encoding": "inplace",
        "label": "uint24",
        "numberOfBytes": "3"
      },
      "t_uint256": {
        "encoding": "inplace",
        "label": "uint256",
        "numberOfBytes": "32"
      }
    }
  }
}